{
    "_format": "hh-sol-artifact-1",
    "contractName": "Polling",
    "sourceName": "contracts/Polling.sol",
    "abi": [
        {
            "inputs": [
                {
                    "internalType": "string[]",
                    "name": "_options",
                    "type": "string[]"
                },
                {
                    "internalType": "address[]",
                    "name": "_group",
                    "type": "address[]"
                },
                {
                    "internalType": "string",
                    "name": "_name",
                    "type": "string"
                }
            ],
            "name": "createPoll",
            "outputs": [],
            "stateMutability": "nonpayable",
            "type": "function"
        },
        {
            "inputs": [],
            "name": "getOptions",
            "outputs": [
                {
                    "components": [
                        {
                            "internalType": "uint256",
                            "name": "id",
                            "type": "uint256"
                        },
                        {
                            "internalType": "string",
                            "name": "name",
                            "type": "string"
                        },
                        {
                            "internalType": "uint256",
                            "name": "count",
                            "type": "uint256"
                        }
                    ],
                    "internalType": "struct Polling.Option[]",
                    "name": "",
                    "type": "tuple[]"
                }
            ],
            "stateMutability": "view",
            "type": "function"
        },
        {
            "inputs": [],
            "name": "getPolls",
            "outputs": [
                {
                    "components": [
                        {
                            "internalType": "uint256",
                            "name": "id",
                            "type": "uint256"
                        },
                        {
                            "internalType": "string",
                            "name": "name",
                            "type": "string"
                        },
                        {
                            "components": [
                                {
                                    "internalType": "uint256",
                                    "name": "id",
                                    "type": "uint256"
                                },
                                {
                                    "internalType": "string",
                                    "name": "name",
                                    "type": "string"
                                },
                                {
                                    "internalType": "uint256",
                                    "name": "count",
                                    "type": "uint256"
                                }
                            ],
                            "internalType": "struct Polling.Option[]",
                            "name": "options",
                            "type": "tuple[]"
                        },
                        {
                            "components": [
                                {
                                    "internalType": "uint256",
                                    "name": "id",
                                    "type": "uint256"
                                },
                                {
                                    "internalType": "string",
                                    "name": "name",
                                    "type": "string"
                                },
                                {
                                    "internalType": "address[]",
                                    "name": "members",
                                    "type": "address[]"
                                }
                            ],
                            "internalType": "struct Polling.Group",
                            "name": "voters",
                            "type": "tuple"
                        }
                    ],
                    "internalType": "struct Polling.Poll[]",
                    "name": "",
                    "type": "tuple[]"
                }
            ],
            "stateMutability": "view",
            "type": "function"
        },
        {
            "inputs": [
                {
                    "internalType": "uint256",
                    "name": "",
                    "type": "uint256"
                }
            ],
            "name": "options",
            "outputs": [
                {
                    "internalType": "uint256",
                    "name": "id",
                    "type": "uint256"
                },
                {
                    "internalType": "string",
                    "name": "name",
                    "type": "string"
                },
                {
                    "internalType": "uint256",
                    "name": "count",
                    "type": "uint256"
                }
            ],
            "stateMutability": "view",
            "type": "function"
        },
        {
            "inputs": [],
            "name": "pollId",
            "outputs": [
                {
                    "internalType": "uint256",
                    "name": "",
                    "type": "uint256"
                }
            ],
            "stateMutability": "view",
            "type": "function"
        },
        {
            "inputs": [
                {
                    "internalType": "uint256",
                    "name": "",
                    "type": "uint256"
                }
            ],
            "name": "polls",
            "outputs": [
                {
                    "internalType": "uint256",
                    "name": "id",
                    "type": "uint256"
                },
                {
                    "internalType": "string",
                    "name": "name",
                    "type": "string"
                },
                {
                    "components": [
                        {
                            "internalType": "uint256",
                            "name": "id",
                            "type": "uint256"
                        },
                        {
                            "internalType": "string",
                            "name": "name",
                            "type": "string"
                        },
                        {
                            "internalType": "address[]",
                            "name": "members",
                            "type": "address[]"
                        }
                    ],
                    "internalType": "struct Polling.Group",
                    "name": "voters",
                    "type": "tuple"
                }
            ],
            "stateMutability": "view",
            "type": "function"
        }
    ],
    "bytecode": "0x608060405234801561001057600080fd5b50611d04806100206000396000f3fe608060405234801561001057600080fd5b50600436106100625760003560e01c806303f643b714610067578063120fe89b14610083578063409e2205146100a15780636f13ab00146100d3578063ac2f0074146100f1578063cc2ee19614610123575b600080fd5b610081600480360381019061007c9190610fea565b610141565b005b61008b6103f4565b6040516100989190611483565b60405180910390f35b6100bb60048036038101906100b691906114d1565b61076f565b6040516100ca93929190611557565b60405180910390f35b6100db610831565b6040516100e89190611595565b60405180910390f35b61010b600480360381019061010691906114d1565b610837565b60405161011a93929190611607565b60405180910390f35b61012b610a1d565b60405161013891906116d2565b60405180910390f35b60028351101580156101555750600a835111155b610194576040517f08c379a000000000000000000000000000000000000000000000000000000000815260040161018b90611766565b60405180910390fd5b6002825110156101d9576040517f08c379a00000000000000000000000000000000000000000000000000000000081526004016101d0906117f8565b60405180910390fd5b6000808154809291906101eb90611847565b919050555060005b83518110156102b7576002600080548152602001908152602001600020600201604051806060016040528060018461022b919061188f565b8152602001868481518110610243576102426118c3565b5b602002602001015181526020016000815250908060018154018082558091505060019003906000526020600020906003020160009091909190915060008201518160000155602082015181600101908161029d9190611afe565b5060408201518160020155505080806001019150506101f3565b5060005460026000805481526020019081526020016000206000018190555080600260008054815260200190815260200160002060010190816102fa9190611afe565b50600360003373ffffffffffffffffffffffffffffffffffffffff1673ffffffffffffffffffffffffffffffffffffffff1681526020019081526020016000206002600080548152602001908152602001600020908060018154018082558091505060019003906000526020600020906006020160009091909190915060008201548160000155600182018160010190816103959190611be6565b5060028201816002019080546103ac929190610b22565b50600382018160030160008201548160000155600182018160010190816103d39190611be6565b5060028201816002019080546103ea929190610ba3565b5050505050505050565b6060600360003373ffffffffffffffffffffffffffffffffffffffff1673ffffffffffffffffffffffffffffffffffffffff168152602001908152602001600020805480602002602001604051908101604052809291908181526020016000905b8282101561076657838290600052602060002090600602016040518060800160405290816000820154815260200160018201805461049290611921565b80601f01602080910402602001604051908101604052809291908181526020018280546104be90611921565b801561050b5780601f106104e05761010080835404028352916020019161050b565b820191906000526020600020905b8154815290600101906020018083116104ee57829003601f168201915b5050505050815260200160028201805480602002602001604051908101604052809291908181526020016000905b8282101561061157838290600052602060002090600302016040518060600160405290816000820154815260200160018201805461057690611921565b80601f01602080910402602001604051908101604052809291908181526020018280546105a290611921565b80156105ef5780601f106105c4576101008083540402835291602001916105ef565b820191906000526020600020905b8154815290600101906020018083116105d257829003601f168201915b5050505050815260200160028201548152505081526020019060010190610539565b505050508152602001600382016040518060600160405290816000820154815260200160018201805461064390611921565b80601f016020809104026020016040519081016040528092919081815260200182805461066f90611921565b80156106bc5780601f10610691576101008083540402835291602001916106bc565b820191906000526020600020905b81548152906001019060200180831161069f57829003601f168201915b505050505081526020016002820180548060200260200160405190810160405280929190818152602001828054801561074a57602002820191906000526020600020905b8160009054906101000a900473ffffffffffffffffffffffffffffffffffffffff1673ffffffffffffffffffffffffffffffffffffffff1681526020019060010190808311610700575b5050505050815250508152505081526020019060010190610455565b50505050905090565b6001818154811061077f57600080fd5b90600052602060002090600302016000915090508060000154908060010180546107a890611921565b80601f01602080910402602001604051908101604052809291908181526020018280546107d490611921565b80156108215780601f106107f657610100808354040283529160200191610821565b820191906000526020600020905b81548152906001019060200180831161080457829003601f168201915b5050505050908060020154905083565b60005481565b600260205280600052604060002060009150905080600001549080600101805461086090611921565b80601f016020809104026020016040519081016040528092919081815260200182805461088c90611921565b80156108d95780601f106108ae576101008083540402835291602001916108d9565b820191906000526020600020905b8154815290600101906020018083116108bc57829003601f168201915b505050505090806003016040518060600160405290816000820154815260200160018201805461090890611921565b80601f016020809104026020016040519081016040528092919081815260200182805461093490611921565b80156109815780601f1061095657610100808354040283529160200191610981565b820191906000526020600020905b81548152906001019060200180831161096457829003601f168201915b5050505050815260200160028201805480602002602001604051908101604052809291908181526020018280548015610a0f57602002820191906000526020600020905b8160009054906101000a900473ffffffffffffffffffffffffffffffffffffffff1673ffffffffffffffffffffffffffffffffffffffff16815260200190600101908083116109c5575b505050505081525050905083565b60606001805480602002602001604051908101604052809291908181526020016000905b82821015610b19578382906000526020600020906003020160405180606001604052908160008201548152602001600182018054610a7e90611921565b80601f0160208091040260200160405190810160405280929190818152602001828054610aaa90611921565b8015610af75780601f10610acc57610100808354040283529160200191610af7565b820191906000526020600020905b815481529060010190602001808311610ada57829003601f168201915b5050505050815260200160028201548152505081526020019060010190610a41565b50505050905090565b828054828255906000526020600020906003028101928215610b925760005260206000209160030282015b82811115610b915782826000820154816000015560018201816001019081610b759190611be6565b5060028201548160020155505091600301919060030190610b4d565b5b509050610b9f9190610bf5565b5090565b828054828255906000526020600020908101928215610be45760005260206000209182015b82811115610be3578254825591600101919060010190610bc8565b5b509050610bf19190610c2c565b5090565b5b80821115610c2857600080820160009055600182016000610c179190610c49565b600282016000905550600301610bf6565b5090565b5b80821115610c45576000816000905550600101610c2d565b5090565b508054610c5590611921565b6000825580601f10610c675750610c86565b601f016020900490600052602060002090810190610c859190610c2c565b5b50565b6000604051905090565b600080fd5b600080fd5b600080fd5b6000601f19601f8301169050919050565b7f4e487b7100000000000000000000000000000000000000000000000000000000600052604160045260246000fd5b610ceb82610ca2565b810181811067ffffffffffffffff82111715610d0a57610d09610cb3565b5b80604052505050565b6000610d1d610c89565b9050610d298282610ce2565b919050565b600067ffffffffffffffff821115610d4957610d48610cb3565b5b602082029050602081019050919050565b600080fd5b600080fd5b600067ffffffffffffffff821115610d7f57610d7e610cb3565b5b610d8882610ca2565b9050602081019050919050565b82818337600083830152505050565b6000610db7610db284610d64565b610d13565b905082815260208101848484011115610dd357610dd2610d5f565b5b610dde848285610d95565b509392505050565b600082601f830112610dfb57610dfa610c9d565b5b8135610e0b848260208601610da4565b91505092915050565b6000610e27610e2284610d2e565b610d13565b90508083825260208201905060208402830185811115610e4a57610e49610d5a565b5b835b81811015610e9157803567ffffffffffffffff811115610e6f57610e6e610c9d565b5b808601610e7c8982610de6565b85526020850194505050602081019050610e4c565b5050509392505050565b600082601f830112610eb057610eaf610c9d565b5b8135610ec0848260208601610e14565b91505092915050565b600067ffffffffffffffff821115610ee457610ee3610cb3565b5b602082029050602081019050919050565b600073ffffffffffffffffffffffffffffffffffffffff82169050919050565b6000610f2082610ef5565b9050919050565b610f3081610f15565b8114610f3b57600080fd5b50565b600081359050610f4d81610f27565b92915050565b6000610f66610f6184610ec9565b610d13565b90508083825260208201905060208402830185811115610f8957610f88610d5a565b5b835b81811015610fb25780610f9e8882610f3e565b845260208401935050602081019050610f8b565b5050509392505050565b600082601f830112610fd157610fd0610c9d565b5b8135610fe1848260208601610f53565b91505092915050565b60008060006060848603121561100357611002610c93565b5b600084013567ffffffffffffffff81111561102157611020610c98565b5b61102d86828701610e9b565b935050602084013567ffffffffffffffff81111561104e5761104d610c98565b5b61105a86828701610fbc565b925050604084013567ffffffffffffffff81111561107b5761107a610c98565b5b61108786828701610de6565b9150509250925092565b600081519050919050565b600082825260208201905092915050565b6000819050602082019050919050565b6000819050919050565b6110d0816110bd565b82525050565b600081519050919050565b600082825260208201905092915050565b60005b838110156111105780820151818401526020810190506110f5565b60008484015250505050565b6000611127826110d6565b61113181856110e1565b93506111418185602086016110f2565b61114a81610ca2565b840191505092915050565b600081519050919050565b600082825260208201905092915050565b6000819050602082019050919050565b600060608301600083015161119960008601826110c7565b50602083015184820360208601526111b1828261111c565b91505060408301516111c660408601826110c7565b508091505092915050565b60006111dd8383611181565b905092915050565b6000602082019050919050565b60006111fd82611155565b6112078185611160565b93508360208202850161121985611171565b8060005b85811015611255578484038952815161123685826111d1565b9450611241836111e5565b925060208a0199505060018101905061121d565b50829750879550505050505092915050565b600081519050919050565b600082825260208201905092915050565b6000819050602082019050919050565b61129c81610f15565b82525050565b60006112ae8383611293565b60208301905092915050565b6000602082019050919050565b60006112d282611267565b6112dc8185611272565b93506112e783611283565b8060005b838110156113185781516112ff88826112a2565b975061130a836112ba565b9250506001810190506112eb565b5085935050505092915050565b600060608301600083015161133d60008601826110c7565b5060208301518482036020860152611355828261111c565b9150506040830151848203604086015261136f82826112c7565b9150508091505092915050565b600060808301600083015161139460008601826110c7565b50602083015184820360208601526113ac828261111c565b915050604083015184820360408601526113c682826111f2565b915050606083015184820360608601526113e08282611325565b9150508091505092915050565b60006113f9838361137c565b905092915050565b6000602082019050919050565b600061141982611091565b611423818561109c565b935083602082028501611435856110ad565b8060005b85811015611471578484038952815161145285826113ed565b945061145d83611401565b925060208a01995050600181019050611439565b50829750879550505050505092915050565b6000602082019050818103600083015261149d818461140e565b905092915050565b6114ae816110bd565b81146114b957600080fd5b50565b6000813590506114cb816114a5565b92915050565b6000602082840312156114e7576114e6610c93565b5b60006114f5848285016114bc565b91505092915050565b611507816110bd565b82525050565b600082825260208201905092915050565b6000611529826110d6565b611533818561150d565b93506115438185602086016110f2565b61154c81610ca2565b840191505092915050565b600060608201905061156c60008301866114fe565b818103602083015261157e818561151e565b905061158d60408301846114fe565b949350505050565b60006020820190506115aa60008301846114fe565b92915050565b60006060830160008301516115c860008601826110c7565b50602083015184820360208601526115e0828261111c565b915050604083015184820360408601526115fa82826112c7565b9150508091505092915050565b600060608201905061161c60008301866114fe565b818103602083015261162e818561151e565b9050818103604083015261164281846115b0565b9050949350505050565b600082825260208201905092915050565b600061166882611155565b611672818561164c565b93508360208202850161168485611171565b8060005b858110156116c057848403895281516116a185826111d1565b94506116ac836111e5565b925060208a01995050600181019050611688565b50829750879550505050505092915050565b600060208201905081810360008301526116ec818461165d565b905092915050565b7f6e756d626572206f66206f7074696f6e73206d7573742062652062657477656560008201527f6e203220616e6420313000000000000000000000000000000000000000000000602082015250565b6000611750602a8361150d565b915061175b826116f4565b604082019050919050565b6000602082019050818103600083015261177f81611743565b9050919050565b7f6d7573742068617665206174206c6561737420322070656f706c6520666f722060008201527f6120706f6c6c0000000000000000000000000000000000000000000000000000602082015250565b60006117e260268361150d565b91506117ed82611786565b604082019050919050565b60006020820190508181036000830152611811816117d5565b9050919050565b7f4e487b7100000000000000000000000000000000000000000000000000000000600052601160045260246000fd5b6000611852826110bd565b91507fffffffffffffffffffffffffffffffffffffffffffffffffffffffffffffffff820361188457611883611818565b5b600182019050919050565b600061189a826110bd565b91506118a5836110bd565b92508282019050808211156118bd576118bc611818565b5b92915050565b7f4e487b7100000000000000000000000000000000000000000000000000000000600052603260045260246000fd5b7f4e487b7100000000000000000000000000000000000000000000000000000000600052602260045260246000fd5b6000600282049050600182168061193957607f821691505b60208210810361194c5761194b6118f2565b5b50919050565b60008190508160005260206000209050919050565b60006020601f8301049050919050565b600082821b905092915050565b6000600883026119b47fffffffffffffffffffffffffffffffffffffffffffffffffffffffffffffffff82611977565b6119be8683611977565b95508019841693508086168417925050509392505050565b6000819050919050565b60006119fb6119f66119f1846110bd565b6119d6565b6110bd565b9050919050565b6000819050919050565b611a15836119e0565b611a29611a2182611a02565b848454611984565b825550505050565b600090565b611a3e611a31565b611a49818484611a0c565b505050565b5b81811015611a6d57611a62600082611a36565b600181019050611a4f565b5050565b601f821115611ab257611a8381611952565b611a8c84611967565b81016020851015611a9b578190505b611aaf611aa785611967565b830182611a4e565b50505b505050565b600082821c905092915050565b6000611ad560001984600802611ab7565b1980831691505092915050565b6000611aee8383611ac4565b9150826002028217905092915050565b611b07826110d6565b67ffffffffffffffff811115611b2057611b1f610cb3565b5b611b2a8254611921565b611b35828285611a71565b600060209050601f831160018114611b685760008415611b56578287015190505b611b608582611ae2565b865550611bc8565b601f198416611b7686611952565b60005b82811015611b9e57848901518255600182019150602085019450602081019050611b79565b86831015611bbb5784890151611bb7601f891682611ac4565b8355505b6001600288020188555050505b505050505050565b600081549050611bdf81611921565b9050919050565b818103611bf4575050611ccc565b611bfd82611bd0565b67ffffffffffffffff811115611c1657611c15610cb3565b5b611c208254611921565b611c2b828285611a71565b6000601f831160018114611c5a5760008415611c48578287015490505b611c528582611ae2565b865550611cc5565b601f198416611c6887611952565b9650611c7386611952565b60005b82811015611c9b57848901548255600182019150600185019450602081019050611c76565b86831015611cb85784890154611cb4601f891682611ac4565b8355505b6001600288020188555050505b5050505050505b56fea26469706673582212204fec9aa0fbdee5e6cc767982e1f7c9312a9e2b47346ad866e8ff4ce6689331be64736f6c63430008180033",
    "linkReferences": {},
    "deployedLinkReferences": {}
}